{
  "contractName": "Sponsorship",
  "abi": [
    {
      "constant": true,
      "inputs": [
        {
          "name": "",
          "type": "bytes32"
        }
      ],
      "name": "bounties",
      "outputs": [
        {
          "name": "developer",
          "type": "address"
        },
        {
          "name": "sponsor",
          "type": "address"
        },
        {
          "name": "amount",
          "type": "uint256"
        }
      ],
      "payable": false,
      "stateMutability": "view",
      "type": "function"
    },
    {
      "inputs": [
        {
          "name": "_realitio",
          "type": "address"
        }
      ],
      "payable": false,
      "stateMutability": "nonpayable",
      "type": "constructor"
    },
    {
      "constant": false,
      "inputs": [
        {
          "name": "question_id",
          "type": "bytes32"
        },
        {
          "name": "developer",
          "type": "address"
        }
      ],
      "name": "sponsor",
      "outputs": [],
      "payable": true,
      "stateMutability": "payable",
      "type": "function"
    },
    {
      "constant": false,
      "inputs": [
        {
          "name": "question_id",
          "type": "bytes32"
        }
      ],
      "name": "claim",
      "outputs": [],
      "payable": false,
      "stateMutability": "nonpayable",
      "type": "function"
    },
    {
      "constant": true,
      "inputs": [
        {
          "name": "question_id",
          "type": "bytes32"
        }
      ],
      "name": "isSponsorable",
      "outputs": [
        {
          "name": "",
          "type": "bool"
        }
      ],
      "payable": false,
      "stateMutability": "view",
      "type": "function"
    },
    {
      "constant": true,
      "inputs": [
        {
          "name": "question_id",
          "type": "bytes32"
        }
      ],
      "name": "isClaimable",
      "outputs": [
        {
          "name": "",
          "type": "bool"
        }
      ],
      "payable": false,
      "stateMutability": "view",
      "type": "function"
    }
  ],
  "bytecode": "0x608060405234801561001057600080fd5b5060405160208061099183398101806040528101908080519060200190929190505050806000806101000a81548173ffffffffffffffffffffffffffffffffffffffff021916908373ffffffffffffffffffffffffffffffffffffffff1602179055505061090e806100836000396000f30060806040526004361061006d576000357c0100000000000000000000000000000000000000000000000000000000900463ffffffff168063088657cd14610072578063455f468f146100bb578063690edff314610104578063bd66528a14610148578063bf5522da14610179575b600080fd5b34801561007e57600080fd5b506100a16004803603810190808035600019169060200190929190505050610224565b604051808215151515815260200191505060405180910390f35b3480156100c757600080fd5b506100ea6004803603810190808035600019169060200190929190505050610331565b604051808215151515815260200191505060405180910390f35b6101466004803603810190808035600019169060200190929190803573ffffffffffffffffffffffffffffffffffffffff16906020019092919050505061043d565b005b34801561015457600080fd5b50610177600480360381019080803560001916906020019092919050505061062a565b005b34801561018557600080fd5b506101a86004803603810190808035600019169060200190929190505050610878565b604051808473ffffffffffffffffffffffffffffffffffffffff1673ffffffffffffffffffffffffffffffffffffffff1681526020018373ffffffffffffffffffffffffffffffffffffffff1673ffffffffffffffffffffffffffffffffffffffff168152602001828152602001935050505060405180910390f35b600080600160008460001916600019168152602001908152602001600020600201541115610255576000905061032c565b6000809054906101000a900473ffffffffffffffffffffffffffffffffffffffff1673ffffffffffffffffffffffffffffffffffffffff16637f8d429e836040518263ffffffff167c0100000000000000000000000000000000000000000000000000000000028152600401808260001916600019168152602001915050602060405180830381600087803b1580156102ed57600080fd5b505af1158015610301573d6000803e3d6000fd5b505050506040513d602081101561031757600080fd5b81019080805190602001909291905050501590505b919050565b6000806001600084600019166000191681526020019081526020016000206002015414156103625760009050610438565b6000809054906101000a900473ffffffffffffffffffffffffffffffffffffffff1673ffffffffffffffffffffffffffffffffffffffff16637f8d429e836040518263ffffffff167c0100000000000000000000000000000000000000000000000000000000028152600401808260001916600019168152602001915050602060405180830381600087803b1580156103fa57600080fd5b505af115801561040e573d6000803e3d6000fd5b505050506040513d602081101561042457600080fd5b810190808051906020019092919050505090505b919050565b60006001600084600019166000191681526020019081526020016000206002015414151561046a57600080fd5b8060016000846000191660001916815260200190815260200160002060000160006101000a81548173ffffffffffffffffffffffffffffffffffffffff021916908373ffffffffffffffffffffffffffffffffffffffff1602179055503360016000846000191660001916815260200190815260200160002060010160006101000a81548173ffffffffffffffffffffffffffffffffffffffff021916908373ffffffffffffffffffffffffffffffffffffffff16021790555034600160008460001916600019168152602001908152602001600020600201819055506000809054906101000a900473ffffffffffffffffffffffffffffffffffffffff1673ffffffffffffffffffffffffffffffffffffffff16637f8d429e836040518263ffffffff167c0100000000000000000000000000000000000000000000000000000000028152600401808260001916600019168152602001915050602060405180830381600087803b1580156105df57600080fd5b505af11580156105f3573d6000803e3d6000fd5b505050506040513d602081101561060957600080fd5b810190808051906020019092919050505015151561062657600080fd5b5050565b6000806000809054906101000a900473ffffffffffffffffffffffffffffffffffffffff1673ffffffffffffffffffffffffffffffffffffffff1663a462fb7b846040518263ffffffff167c0100000000000000000000000000000000000000000000000000000000028152600401808260001916600019168152602001915050602060405180830381600087803b1580156106c557600080fd5b505af11580156106d9573d6000803e3d6000fd5b505050506040513d60208110156106ef57600080fd5b8101908080519060200190929190505050915060018002600019168260001916146107585760016000846000191660001916815260200190815260200160002060010160009054906101000a900473ffffffffffffffffffffffffffffffffffffffff16610798565b60016000846000191660001916815260200190815260200160002060000160009054906101000a900473ffffffffffffffffffffffffffffffffffffffff165b90508073ffffffffffffffffffffffffffffffffffffffff166108fc600160008660001916600019168152602001908152602001600020600201549081150290604051600060405180830381858888f193505050501580156107fe573d6000803e3d6000fd5b50600160008460001916600019168152602001908152602001600020600080820160006101000a81549073ffffffffffffffffffffffffffffffffffffffff02191690556001820160006101000a81549073ffffffffffffffffffffffffffffffffffffffff021916905560028201600090555050505050565b60016020528060005260406000206000915090508060000160009054906101000a900473ffffffffffffffffffffffffffffffffffffffff16908060010160009054906101000a900473ffffffffffffffffffffffffffffffffffffffff169080600201549050835600a165627a7a7230582092f91b7cc45b1b9cce8af23b8c767d11404278e74ab91e4f49cf5dba36a0b6ae0029",
  "source": "pragma solidity ^0.4.17;\n\ncontract RealitioI {\n    function getFinalAnswer(bytes32 question_id) public view returns (bytes32);\n    function isFinalized(bytes32 question_id) public view returns (bool);\n}\n\ncontract Sponsorship {\n\n    address realitio;\n\n    struct Bounty {\n        address developer;\n        address sponsor;\n        uint256 amount;\n    }\n    mapping(bytes32 => Bounty) public bounties;\n\n    constructor(address _realitio) public {\n        realitio = _realitio;\n    }\n\n    function sponsor(bytes32 question_id, address developer) public payable {\n        require(bounties[question_id].amount == 0); \n\n        bounties[question_id].developer = developer;\n        bounties[question_id].sponsor = msg.sender;\n        bounties[question_id].amount = msg.value;\n\n        require(!RealitioI(realitio).isFinalized(question_id));\n    }\n\n    function claim(bytes32 question_id) public {\n        bytes32 answer = RealitioI(realitio).getFinalAnswer(question_id);\n        address claimer = (answer == bytes32(1)) ? bounties[question_id].developer : bounties[question_id].sponsor;\n        claimer.transfer(bounties[question_id].amount);\n        delete (bounties[question_id]);\n    }\n\n    function isSponsorable(bytes32 question_id) public view returns (bool) {\n        if (bounties[question_id].amount > 0) return false;\n        return !RealitioI(realitio).isFinalized(question_id);    \n    }\n\n    function isClaimable(bytes32 question_id) public view returns (bool) {\n        if (bounties[question_id].amount == 0) return false;\n        return RealitioI(realitio).isFinalized(question_id);    \n    }\n\n}\n",
  "sourcePath": "/var/www/html/petshop2/contracts/Sponsorship.sol",
  "compiler": {
    "name": "solc",
    "version": "0.4.24+commit.e67f0147.Emscripten.clang"
  },
  "schemaVersion": "2.0.1",
  "updatedAt": "2018-09-27T07:52:33.581Z"
}